:020000040800F2
:1000000000000520D5D8000805D8000807D800084A
:1000100009D800080BD800080DD80008000000001F
:100020000000000000000000000000006160000807
:100030000FD80008000000000161000811D8000876
:1000400025D9000825D9000825D9000825D9000898
:1000500025D9000825D9000825D9000825D9000888
:1000600025D9000825D9000825D9000825D9000878
:1000700029D8000825D9000825D9000825D9000865
:1000800025D9000825D9000825D9000825D9000858
:1000900025D9000825D9000825D900087DD80008F1
:1000A00025D9000825D9000825D9000825D9000838
:1000B00025D9000825D9000825D9000825D9000828
:1000C00025D9000825D9000825D9000825D9000818
:1000D00025D9000825D9000825D9000825D9000808
:1000E00025D9000825D9000825D9000825D90008F8
:1000F00025D9000825D9000825D9000825D90008E8
:1001000025D9000825D9000825D9000825D90008D7
:1001100025D9000825D9000825D9000835D80008B8
:1001200041D800084DD8000825D9000825D9000875
:1001300059D8000825D9000825D9000825D9000874
:1001400025D9000825D9000825D9000825D9000897
:1001500025D9000825D9000825D9000825D9000887
:1001600025D9000825D9000825D9000825D9000877
:1001700025D9000825D9000825D90008000000006D
:1001800065D8000825D9000825D9000825D9000818
:1001900071D8000825D9000825D9000825D90008FC
:1001A000000000000000000025D9000825D9000843
:1001B00025D9000825D9000825D9000825D9000827
:0801C00025D9000825D900082B
:1001D00010B5054C237833B9044B13B10448AFF381
:1001E00000800123237010BD0003002000000000E8
:1001F000CC15010808B5034B1BB103490348AFF305
:10020000008008BD0000000004030020CC15010898
:100210002DE9F04F82B001904FF000744FF000785C
:100220004FF000054FF0000952F804CB52F804EBF0
:100230000868CB6DC0FB0C45D1F88000CEF1000EF4
:10024000C3FB0E45D1F8DC30C0FB0C89C3FB0E8923
:1002500052F804CB52F804EB48688B6DC0FB0C4598
:10026000D1F88400CEF1000EC3FB0E45D1F8D83092
:10027000C0FB0C89C3FB0E8952F804CB52F804EB87
:1002800088684B6DC0FB0C45D1F88800CEF1000E9C
:10029000C3FB0E45D1F8D430C0FB0C89C3FB0E89DB
:1002A00052F804CB52F804EBC8680B6DC0FB0C4548
:1002B000D1F88C00CEF1000EC3FB0E45D1F8D03042
:1002C000C0FB0C89C3FB0E8952F804CB52F804EB37
:1002D0000869CB6CC0FB0C45D1F89000CEF1000E44
:1002E000C3FB0E45D1F8CC30C0FB0C89C3FB0E8993
:1002F00052F804CB52F804EB48698B6CC0FB0C45F8
:10030000D1F89400CEF1000EC3FB0E45D1F8C830F1
:10031000C0FB0C89C3FB0E8952F804CB52F804EBE6
:1003200088694B6CC0FB0C45D1F89800CEF1000EEB
:10033000C3FB0E45D1F8C430C0FB0C89C3FB0E894A
:1003400052F804CB52F804EBC8690B6CC0FB0C45A7
:10035000D1F89C00CEF1000EC3FB0E45D1F8C030A1
:10036000C0FB0C89C3FB0E8901984FF4FE4E4EF082
:10037000FF0E4FEA946444EA851404F30F044FEA35
:10038000986848EA891808F30F080480A0F80280EA
:1003900002F5707201F580514FF000744FF0007853
:1003A0004FF000054FF0000952F804CB0868D1F86F
:1003B0008030C0FB0C45C3FB0C8952F804CB486865
:1003C000D1F88430C0FB0C45C3FB0C8952F804CB38
:1003D0008868D1F88830C0FB0C45C3FB0C8952F803
:1003E00004CBC868D1F88C30C0FB0C45C3FB0C892A
:1003F00052F804CB0869D1F89030C0FB0C45C3FB20
:100400000C8952F804CB4869D1F89430C0FB0C45F4
:10041000C3FB0C8952F804CB8869D1F89830C0FB33
:100420000C45C3FB0C8952F804CBC869D1F89C3049
:10043000C0FB0C45C3FB0C8901984FF4FE4E4EF0F7
:10044000FF0E4FEA946444EA851404F30F044FEA64
:10045000986848EA891808F30F08A0F84040A0F807
:100460004280A2F57872A1F570614FF00F0C00F197
:100470000400CDF800C001904FF000744FF00078F8
:100480004FF000764FF0007A4FF000054FF0000972
:100490004FF000074FF0000B52F804CB52F804EB7A
:1004A0000868CB6DC0FB0C45C0FB0E67CEF1000E9B
:1004B000C3FB0C67C3FB0E45D1F8DC30D1F88000DC
:1004C000C3FB0E89C3FB0CABCEF1000EC0FB0C8945
:1004D000C0FB0EAB52F804CB52F804EB48688B6DAE
:1004E000C0FB0C45C0FB0E67CEF1000EC3FB0C67D2
:1004F000C3FB0E45D1F8D830D1F88400C3FB0E8978
:10050000C3FB0CABCEF1000EC0FB0C89C0FB0EABE5
:1005100052F804CB52F804EB88684B6DC0FB0C45D5
:10052000C0FB0E67CEF1000EC3FB0C67C3FB0E458C
:10053000D1F8D430D1F88800C3FB0E89C3FB0CABD3
:10054000CEF1000EC0FB0C89C0FB0EAB52F804CB01
:1005500052F804EBC8680B6DC0FB0C45C0FB0E677E
:10056000CEF1000EC3FB0C67C3FB0E45D1F8D030B3
:10057000D1F88C00C3FB0E89C3FB0CABCEF1000E8F
:10058000C0FB0C89C0FB0EAB52F804CB52F804EB55
:100590000869CB6CC0FB0C45C0FB0E67CEF1000EAA
:1005A000C3FB0C67C3FB0E45D1F8CC30D1F89000EB
:1005B000C3FB0E89C3FB0CABCEF1000EC0FB0C8954
:1005C000C0FB0EAB52F804CB52F804EB48698B6CBD
:1005D000C0FB0C45C0FB0E67CEF1000EC3FB0C67E1
:1005E000C3FB0E45D1F8C830D1F89400C3FB0E8987
:1005F000C3FB0CABCEF1000EC0FB0C89C0FB0EABF5
:1006000052F804CB52F804EB88694B6CC0FB0C45E4
:10061000C0FB0E67CEF1000EC3FB0C67C3FB0E459B
:10062000D1F8C430D1F89800C3FB0E89C3FB0CABE2
:10063000CEF1000EC0FB0C89C0FB0EAB52F804CB10
:1006400052F804EBC8690B6CC0FB0C45C0FB0E678D
:10065000CEF1000EC3FB0C67C3FB0E45D1F8C030D2
:10066000D1F89C00C3FB0E89C3FB0CABCEF1000E8E
:10067000C0FB0C89C0FB0EAB01F5807101984FF4F3
:10068000FE4E4EF0FF0E4FEA946444EA851404F3E4
:100690000F044FEA986848EA891808F30F084FEAF0
:1006A000966646EA871606F30F064FEA9A6A4AEA02
:1006B0008B1A0AF30F0ADDF800C000EBCC0E2EF8FF
:1006C000026B2EF802AB20F8024B20F8028BBCF133
:1006D000010C7FF4CEAE02B0BDE8F08F2DE9F04FF3
:1006E00082B001904FF000744FF0000552F804CB37
:1006F00052F804EB0868CB6DCEF1000EC0FB0C4540
:10070000C3FB0E4552F804CB52F804EB48688B6DDE
:10071000CEF1000EC0FB0C45C3FB0E4552F804CBD6
:1007200052F804EB88684B6DCEF1000EC0FB0C450F
:10073000C3FB0E4552F804CB52F804EBC8680B6DAE
:10074000CEF1000EC0FB0C45C3FB0E4552F804CBA6
:1007500052F804EB0869CB6CCEF1000EC0FB0C45DF
:10076000C3FB0E4552F804CB52F804EB48698B6C7E
:10077000CEF1000EC0FB0C45C3FB0E4552F804CB76
:1007800052F804EB88694B6CCEF1000EC0FB0C45AF
:10079000C3FB0E4552F804CB52F804EBC8690B6C4E
:1007A000CEF1000EC0FB0C45C3FB0E4501984FF483
:1007B000FE4E4EF0FF0E4FEA946444EA851404F3B3
:1007C0000F04048002F5707201F580514FF000743F
:1007D0004FF0000552F804CB0868C0FB0C4552F8F6
:1007E00004CB4868C0FB0C4552F804CB8868C0FBBA
:1007F0000C4552F804CBC868C0FB0C4552F804CB3A
:100800000869C0FB0C4552F804CB4869C0FB0C4595
:1008100052F804CB8869C0FB0C4552F804CBC86978
:10082000C0FB0C4501984FF4FE4E4EF0FF0E4FEA10
:10083000946444EA851404F30F040484A2F57872E6
:10084000A1F570614FF00F0C00F10200CDF800C06F
:1008500001904FF000744FF000764FF000054FF01C
:10086000000752F804CB52F804EB0868CB6DC0FBCC
:100870000C45C0FB0E67CEF1000EC3FB0E45C3FB5B
:100880000C6752F804CB52F804EB48688B6DC0FB40
:100890000C45C0FB0E67CEF1000EC3FB0E45C3FB3B
:1008A0000C6752F804CB52F804EB88684B6DC0FB20
:1008B0000C45C0FB0E67CEF1000EC3FB0E45C3FB1B
:1008C0000C6752F804CB52F804EBC8680B6DC0FB00
:1008D0000C45C0FB0E67CEF1000EC3FB0E45C3FBFB
:1008E0000C6752F804CB52F804EB0869CB6CC0FBE0
:1008F0000C45C0FB0E67CEF1000EC3FB0E45C3FBDB
:100900000C6752F804CB52F804EB48698B6CC0FBBF
:100910000C45C0FB0E67CEF1000EC3FB0E45C3FBBA
:100920000C6752F804CB52F804EB88694B6CC0FB9F
:100930000C45C0FB0E67CEF1000EC3FB0E45C3FB9A
:100940000C6752F804CB52F804EBC8690B6CC0FB7F
:100950000C45C0FB0E67CEF1000EC3FB0E45C3FB7A
:100960000C6701F5807101984FF4FE4E4EF0FF0EBA
:100970004FEA946444EA851404F30F044FEA966640
:1009800046EA871606F30F06DDF800C000EB8C0E72
:100990002EF8026B20F8024BBCF1010C7FF456AF2D
:1009A00002B0BDE8F08F034613F8012B002AFBD1FB
:1009B000181A013870470000000000000000000015
:1009C00001F0FF01102A2BDB10F0070F08D010F800
:1009D000013B013A8B422DD010F0070F42B3F6D104
:1009E000F0B441EA012141EA014122F007047FF01D
:1009F00000070023F0E80256083C85EA010586EA74
:100A0000010685FA47F5A3FA87F586FA47F6A5FAAF
:100A100087F68EB9EED1F0BC01F0FF0102F00702BB
:100A200032B110F8013B013A83EA010313B1F8D166
:100A30000020704701387047002D06BF3546033847
:100A4000073815F0010F07D1013015F4807F02BF80
:100A5000013015F4C03F0130F0BC0138704700BFD1
:100A600081F0004102E000BF83F0004330B54FEA5F
:100A700041044FEA430594EA050F08BF90EA020FCC
:100A80001FBF54EA000C55EA020C7FEA645C7FEA5F
:100A9000655C00F0E2804FEA5454D4EB5555B8BF82
:100AA0006D420CDD2C4480EA020281EA030382EAF3
:100AB000000083EA010180EA020281EA0303362D85
:100AC00088BF30BD11F0004F4FEA01314FF4801C58
:100AD0004CEA113102D0404261EB410113F0004F6A
:100AE0004FEA03334CEA133302D0524263EB430321
:100AF00094EA050F00F0A780A4F10104D5F1200EBF
:100B00000DDB02FA0EFC22FA05F2801841F1000119
:100B100003FA0EF2801843FA05F359410EE0A5F1ED
:100B200020050EF1200E012A03FA0EFC28BF4CF01E
:100B3000020C43FA05F3C01851EBE37101F00045D4
:100B400007D54FF0000EDCF1000C7EEB00006EEBE1
:100B50000101B1F5801F1BD3B1F5001F0CD349086B
:100B60005FEA30004FEA3C0C04F101044FEA4452C2
:100B700012F5800F80F09A80BCF1004F08BF5FEA49
:100B8000500C50F1000041EB045141EA050130BD29
:100B90005FEA4C0C404141EB010111F4801FA4F1CC
:100BA0000104E9D191F0000F04BF01460020B1FA21
:100BB00081F308BF2033A3F10B03B3F120020CDA59
:100BC0000C3208DD02F1140CC2F10C0201FA0CF037
:100BD00021FA02F10CE002F11402D8BFC2F1200C9C
:100BE00001FA02F120FA0CFCDCBF41EA0C01904052
:100BF000E41AA2BF01EB0451294330BD6FEA04049B
:100C00001F3C1CDA0C340EDC04F11404C4F1200285
:100C100020FA04F001FA02F340EA030021FA04F397
:100C200045EA030130BDC4F10C04C4F1200220FAEE
:100C300002F001FA04F340EA0300294630BD21FA2C
:100C400004F0294630BD94F0000F83F4801306BFF2
:100C500081F480110134013D4EE77FEA645C18BFE6
:100C60007FEA655C29D094EA050F08BF90EA020F7D
:100C700005D054EA000C04BF1946104630BD91EA75
:100C8000030F1EBF0021002030BD5FEA545C05D178
:100C90004000494128BF41F0004130BD14F58004B7
:100CA0003CBF01F5801130BD01F0004545F0FE412B
:100CB00041F470014FF0000030BD7FEA645C1ABF60
:100CC000194610467FEA655C1CBF0B46024650EA97
:100CD000013406BF52EA033591EA030F41F40021C3
:100CE00030BD00BF90F0000F04BF0021704730B549
:100CF0004FF4806404F132044FF000054FF000011E
:100D000050E700BF90F0000F04BF0021704730B5DE
:100D10004FF4806404F1320410F0004548BF4042B3
:100D20004FF000013EE700BF42004FEAE2014FEA08
:100D300031014FEA02701FBF12F07F4393F07F4FE3
:100D400081F06051704732F07F4208BF704793F0E6
:100D50007F4F04BF41F40021704730B54FF46074F9
:100D600001F0004521F000411CE700BF50EA0102FC
:100D700008BF704730B54FF000050AE050EA0102A5
:100D800008BF704730B511F0004502D5404261EB15
:100D900041014FF4806404F132045FEA915C3FF456
:100DA000D8AE4FF003025FEADC0C18BF03325FEAF3
:100DB000DC0C18BF033202EBDC02C2F1200300FAA4
:100DC00003FC20FA02F001FA03FE40EA0E0021FAC9
:100DD00002F11444BDE600BF70B54FF0FF0C4CF4B7
:100DE000E06C1CEA11541DBF1CEA135594EA0C0F69
:100DF00095EA0C0F00F0DEF82C4481EA030621EAA4
:100E00004C5123EA4C5350EA013518BF52EA0335DE
:100E100041F4801143F4801338D0A0FB02CE4FF090
:100E20000005E1FB02E506F00042E0FB03E54FF0C0
:100E30000006E1FB03569CF0000F18BF4EF0010EB8
:100E4000A4F1FF04B6F5007F64F5407404D25FEAB4
:100E50004E0E6D4146EB060642EAC62141EA555167
:100E60004FEAC52040EA5E504FEACE2EB4F1FD0CA9
:100E700088BFBCF5E06F1ED8BEF1004F08BF5FEA27
:100E8000500E50F1000041EB045170BD06F00046D9
:100E900046EA010140EA020081EA0301B4EB5C0486
:100EA000C2BFD4EB0C0541EA045170BD41F480117E
:100EB0004FF0000E013C00F3AB8014F1360FDEBFA3
:100EC000002001F0004170BDC4F10004203C35DA7F
:100ED0000C341BDC04F11404C4F1200500FA05F302
:100EE00020FA04F001FA05F240EA020001F00042A3
:100EF00021F0004110EBD37021FA04F642EB060119
:100F00005EEA430E08BF20EAD37070BDC4F10C0442
:100F1000C4F1200500FA04F320FA05F001FA04F206
:100F200040EA020001F0004110EBD37041F10001F2
:100F30005EEA430E08BF20EAD37070BDC4F12005FD
:100F400000FA05F24EEA020E20FA04F301FA05F265
:100F500043EA020321FA04F001F0004121FA04F20D
:100F600020EA020000EBD3705EEA430E08BF20EADD
:100F7000D37070BD94F0000F0FD101F00046400017
:100F800041EB010111F4801F08BF013CF7D041EA99
:100F9000060195F0000F18BF704703F0004652009D
:100FA00043EB030313F4801F08BF013DF7D043EA6E
:100FB0000603704794EA0C0F0CEA135518BF95EA24
:100FC0000C0F0CD050EA410618BF52EA4306D1D1AB
:100FD00081EA030101F000414FF0000070BD50EACA
:100FE000410606BF1046194652EA430619D094EA54
:100FF0000C0F02D150EA013613D195EA0C0F05D13E
:1010000052EA03361CBF104619460AD181EA030191
:1010100001F0004141F0FE4141F470014FF0000049
:1010200070BD41F0FE4141F4780170BD70B54FF0E4
:10103000FF0C4CF4E06C1CEA11541DBF1CEA135564
:1010400094EA0C0F95EA0C0F00F0A7F8A4EB050446
:1010500081EA030E52EA03354FEA013100F088803D
:101060004FEA03334FF0805545EA131343EA126306
:101070004FEA022245EA111545EA10654FEA0026BB
:101080000EF000419D4208BF964244F1FD0404F574
:10109000407402D25B084FEA3202B61A65EB0305D0
:1010A0005B084FEA32024FF480104FF4002CB6EB8D
:1010B000020E75EB030E22BFB61A754640EA0C000D
:1010C0005B084FEA3202B6EB020E75EB030E22BF4D
:1010D000B61A754640EA5C005B084FEA3202B6EB8E
:1010E000020E75EB030E22BFB61A754640EA9C004D
:1010F0005B084FEA3202B6EB020E75EB030E22BF1D
:10110000B61A754640EADC0055EA060E18D04FEADA
:10111000051545EA16754FEA06164FEAC30343EA7A
:1011200052734FEAC2025FEA1C1CC0D111F4801F47
:101130000BD141EA00014FF000004FF0004CB6E740
:1011400011F4801F04BF01430020B4F1FD0C88BFDF
:10115000BCF5E06F3FF6AFAEB5EB030C04BFB6EBEA
:10116000020C5FEA500C50F1000041EB045170BDDD
:101170000EF0004E4EEA113114EB5C04C2BFD4EB0A
:101180000C0541EA045170BD41F480114FF0000E8E
:10119000013C90E645EA060E8DE60CEA135594EA0A
:1011A0000C0F08BF95EA0C0F3FF43BAF94EA0C0F0D
:1011B0000AD150EA01347FF434AF95EA0C0F7FF482
:1011C00025AF104619462CE795EA0C0F06D152EAD6
:1011D00003353FF4FDAE1046194622E750EA4106BA
:1011E00018BF52EA43067FF4C5AE50EA41047FF4CB
:1011F0000DAF52EA43057FF4EBAE12E74FF0FF3C30
:1012000006E000BF4FF0010C02E000BF4FF0010C00
:101210004DF804CD4FEA410C7FEA6C5C4FEA430C79
:1012200018BF7FEA6C5C1BD001B050EA410C0CBFC8
:1012300052EA430C91EA030F02BF90EA020F00202A
:10124000704710F1000F91EA030F58BF994208BF91
:1012500090422CBFD8176FEAE37040F0010070474E
:101260004FEA410C7FEA6C5C02D150EA013C07D1A5
:101270004FEA430C7FEA6C5CD6D152EA033CD3D0F0
:101280005DF8040B704700BF8446104662468C46EA
:101290001946634600E000BF01B5FFF7B7FF00281D
:1012A00048BF10F1000F01BD4DF808EDFFF7F4FF46
:1012B0000CBF012000205DF808FB00BF4DF808EDD1
:1012C000FFF7EAFF34BF012000205DF808FB00BFF4
:1012D0004DF808EDFFF7E0FF94BF012000205DF816
:1012E00008FB00BF4DF808EDFFF7CEFF94BF0120CB
:1012F00000205DF808FB00BF4DF808EDFFF7C4FFC4
:1013000034BF012000205DF808FB00BF4FEA410C0C
:101310007FEA6C5C02D150EA013C0AD14FEA430CEF
:101320007FEA6C5C02D152EA033C02D14FF000002C
:1013300070474FF0010070474FEA410212F500126A
:1013400015D211D56FF47873B3EB625212D94FEA0C
:10135000C12343F0004343EA505311F0004F23FAF6
:1013600002F018BF404270474FF00000704750EA4B
:10137000013005D111F0004008BF6FF00040704708
:101380004FF00000704700BF4A0011D212F5001262
:1013900011D20DD56FF47873B3EB62520ED44FEACD
:1013A000C12343F0004343EA505323FA02F070474D
:1013B0004FF00000704750EA013002D14FF0FF308B
:1013C00070474FF0000070474FEA4102B2F1E0432E
:1013D00024BFB3F5001CDCF1FE5C0DD901F0004C1C
:1013E0004FEAC0024CEA5070B2F1004F40EB83006C
:1013F00008BF20F00100704711F0804F21D113F198
:101400003872BCBF01F00040704741F480114FEAD0
:101410005252C2F11802C2F1200C10FA0CF320FA59
:1014200002F018BF40F001004FEAC1234FEAD32376
:1014300003FA0CFC40EA0C0023FA02F34FEA4303E0
:10144000CCE77FEA625307D150EA01331EBF4FF069
:10145000FE4040F44000704701F0004040F0FE4084
:1014600040F40000704700BF53B94AB9002908BFD3
:1014700000281CBF4FF0FF314FF0FF3000F072B971
:10148000ADF1080C6DE904CE00F006F8DDF804E0DB
:10149000DDE9022304B070472DE9F047089E0446B9
:1014A0008846002B4BD18A42154667D9B2FA82F2A0
:1014B0004AB1C2F1200701FA02F320FA07F795407A
:1014C00047EA030894404FEA154E230CB8FBFEF799
:1014D0001FFA85FC0EFB178843EA084307FB0CF153
:1014E000994209D9EB1807F1FF3080F01B8199422E
:1014F00040F21881023F2B445B1AA4B2B3FBFEF00A
:101500000EFB103344EA034400FB0CFCA44509D94C
:101510002C1900F1FF3380F00781A44540F20481CB
:1015200002382C4440EA0740A4EB0C0400271EB10B
:10153000D4400023C6E900433946BDE8F0878B421A
:1015400009D9002E00F0EB800027C6E900013846DB
:101550003946BDE8F087B3FA83F7002F47D18B42B5
:1015600002D3824200F2FA80841A61EB0303012065
:101570009846002EE0D0C6E90048DDE702B9FFDE5C
:10158000B2FA82F2002A40F08F80491B4FEA154ED2
:101590001FFA85F80127B1FBFEFC230C0EFB1C1182
:1015A00043EA014308FB0CF1994207D9EB180CF10F
:1015B000FF3002D2994200F2CD808446591AA3B27C
:1015C000B1FBFEF00EFB101443EA044408FB00F8E4
:1015D000A04507D92C1900F1FF3302D2A04500F233
:1015E000B6801846A4EB080440EA0C409FE7C7F118
:1015F000200CBB4022FA0CFE4EEA030E01FA07F45F
:1016000020FA0CF521FA0CF34FEA1E482543B3FBF0
:10161000F8F92C0C08FB19331FFA8EFA44EA03433D
:1016200009FB0AF49C4202FA07F200FA07F10BD90F
:101630001EEB030309F1FF3080F087809C4240F2EB
:101640008480A9F1020973441B1BADB2B3FBF8F00F
:1016500008FB103345EA034400FB0AFAA24508D907
:101660001EEB040400F1FF336BD2A24569D90238A6
:10167000744440EA0940A0FB0289A4EB0A044C45EB
:10168000C2464B4654D351D0002E69D0B1EB0A0567
:1016900064EB030404FA0CFCFD40FC404CEA050535
:1016A000C6E90054002747E7C2F1200320FA03F7F8
:1016B000954001FA02F021FA03F34FEA154E384340
:1016C000010CB3FBFEF71FFA85F80EFB173341EA56
:1016D000034107FB08F38B4204FA02F407D96918A7
:1016E00007F1FF3C2FD28B422DD9023F2944CB1A60
:1016F00081B2B3FBFEF00EFB103341EA034100FB65
:1017000008F38B4207D9691800F1FF3C17D28B42CE
:1017100015D902382944C91A40EA07473BE737463A
:10172000304609E70746E7E61846FBE64145ABD2F7
:10173000B8EB020A69EB0E0201381346A4E76046D3
:10174000E9E7184695E76746D1E781467CE7023826
:101750002C4447E7ACF1020C2B442FE7384608E74E
:101760003746E9E6704700BF38B50E4B05460E4ACE
:1017700018784FF47A73B3FBF0F31068B0FBF3F012
:1017800000F0B2FA044658B90F2D09D8024629468E
:101790004FF0FF3000F068FA044B20461D6038BD62
:1017A0000120FCE7000000201401002004000020BC
:1017B00008B5094B03201A6842F400721A601A68CF
:1017C00042F480721A6000F03DFA0F20FFF7CCFF60
:1017D0000BF056FE002008BD003C0240034A044BBB
:1017E00011681B780B441360704700BFCCFD0220CA
:1017F00000000020014B1868704700BFCCFD02209C
:1018000038B50446002800F09B80056C25B90BF024
:1018100055FE656484F83C50236CDB0600F18E8035
:10182000236C23F4885323F0020343F00203236460
:10183000444B5A6822F440325A605A6861680A433D
:101840005A60236821695A6822F480725A605A6883
:1018500042EA0122A1685A605A6822F040725A6036
:101860005A680A43E1685A609A6822F400629A60F2
:101870009A680A4334499A60A26A8A4252D09968A7
:1018800021F07061996099680A43E16A9A609A68E8
:1018900022F040529A609A680A439A609A68A16955
:1018A00022F002029A609A6842EA41029A6094F831
:1018B0002020002A3ED05A68616A42F40062013951
:1018C0005A605A6822F460425A605A6842EA4132C9
:1018D0005A600020DA6AE16922F470020139DA62A2
:1018E000DA6A42EA015294F83010DA629A6822F415
:1018F00000729A609A6842EA412261699A609A6825
:1019000022F480629A609A6842EA81229A60606456
:10191000236C23F0030343F001032364002384F8C2
:101920003C3038BD9A6822F070629A609A6822F062
:101930004052B2E75A6822F40062C9E70120EDE79D
:101940000120EEE7002301400100000F37B51346E8
:1019500000220446019290F83C20012A73D0012213
:10196000056880F83C20AA68D00705D5AA68D20788
:1019700015D4002003B030BDAA6842F00102AA606D
:10198000324A1068324AB0FBF2F000EB400001909E
:10199000019A002AEAD0019A013A0192F8E7206CF4
:1019A00020F4E06020F0010040F4807020646A6858
:1019B000500505D5206C20F4405040F48050206440
:1019C000226C12F4805202D0626C22F00602626431
:1019D0000022A06B84F83C201E4AC2631E4A0264A7
:1019E0001E4AC2646FF022022A606A6842F0806276
:1019F0006A60AA6842F48072AA600A4605F14C0146
:101A000000F01CFA164A536813F01F0F236808D120
:101A1000986810F04050ACD19A6842F080429A60C9
:101A2000A8E710498B4207D1996811F0405F03D1B4
:101A3000996841F0804199605268D20699D40A4A67
:101A4000934296D1E4E7022094E700BF14010020FE
:101A500040420F008F1A00086D1A0008791A00081A
:101A600000230140002001400022014008B5806BA6
:101A70000AF04EF908BD704708B5806B4023036437
:101A8000436C43F004034364FFF7F5FF08BD836B29
:101A90001A6C12F0500F1A6C10B523D142F4007278
:101AA0001A641A68916811F0405F17D19969A9B951
:101AB000D16A11F4700F02D0916848050ED45168B4
:101AC00021F0200151601A6C22F480721A641A6CA1
:101AD000D10403D41A6C42F001021A6418460AF0C9
:101AE0000BF910BDD20603D51846FFF7C4FFF8E77F
:101AF0009B6BBDE81040DB6C184700000023F7B576
:101B0000019390F83C30012B74D00D6801238A6852
:101B1000AEB2092D80F83C3006EB4604036831D99B
:101B2000B5F1004F2ED01E3C4FF0070CDF680CFAC9
:101B300004FC27EA0C07DF603D4FBD421DD1DC6885
:101B400044EA0264DC604968062901EB810227D877
:101B5000053A1F24596B944006FA02F221EA040167
:101B60005963596B0A435A63324A934234D0002373
:101B700080F83C30184603B0F0BDDF6802FA04F488
:101B80003C43DFE74FF0070C1F690CFA04FC02FA34
:101B900004F427EA0C071F611F693C431C61D2E76C
:101BA0000C294FF01F010BD8233A1C6B914006FA09
:101BB00002F224EA01011963196B0A431A63D3E79D
:101BC000413ADC6A914006FA02F224EA0101D96244
:101BD000D96A0A43DA62C7E7B5F1004F0CD1164A59
:101BE000536823F440035360C1E7134A536843F436
:101BF0008003F8E70220BEE7122DF6D00C4B9D4281
:101C000001D0112DB3D10C499D424A6842F4000223
:101C10004A60ACD1094B0A4A1B68B3FBF2F20A23B3
:101C200053430193019B002BA1D0019B013BF8E79B
:101C30001200001000200140002301401401002088
:101C400040420F00074A0002D36800F4E06023F42A
:101C5000E0631B041B0C43F0BF6343F400330343F6
:101C6000D360704700ED00E0164B70B5DC684FF0B4
:101C7000FF36C4F30224C4F10705231D042D28BF39
:101C80000425062B06FA05F38CBF033C002400282C
:101C900021EA030303FA04F306FA04F422EA040433
:101CA00043EA04034FEA0313DBB206DB00F16040B2
:101CB00000F5614080F8003370BD00F00F00024A6B
:101CC0001354F9E700ED00E014ED00E0002808DB14
:101CD0004209012300F01F0003FA00F0014B43F812
:101CE0002200704700E100E00138B0F1807F0AD2A5
:101CF000064BF021064A5860002082F82310072284
:101D000098601A6070470120704700BF10E000E043
:101D100000ED00E003681821DAB223F47F73103A73
:101D200023F00303B2FBF1F20449032A895C88BF64
:101D30000433C1658365806D704700BFE8150108F5
:101D400070B50446FFF756FD0546002C71D0002300
:101D5000226884F83430022384F83530136823F085
:101D60000103136021680B68D8073CD40B68324D1F
:101D7000A0691D40D4E901231343E268134322699B
:101D8000134362691343E26903431343226A134313
:101D9000626A042A43EA050302BFD4E90B563543BD
:101DA0002B43042A0B604B6923F0070343EA020329
:101DB0000BD1A26AE56A13433DB1F8B9012A2DD0CF
:101DC00001D3022A01D1EA012BD44B612046FFF74F
:101DD000A1FFE26D3F2393408360002001236065F3
:101DE00084F8353009E0FFF705FD401B0528B9D917
:101DF00020230320636584F8350070BDB0F5005FD3
:101E000013D1032AE1D801A050F822F0231E0008C4
:101E1000C71D0008231E00081D1E0008B5F1C07F65
:101E2000D3D1402301206365E5E7022AF9D9032ACB
:101E3000C8E70120E1E700BF3F8010F070B590F8DF
:101E40003440012C35D00124866D002580F83440C3
:101E500090F83540012C4FF0020428D180F835402D
:101E600004684565256825F48025256063608368DE
:101E7000402B19D1A260E160C26D3F239340B36053
:101E8000236843F016032360636943F080036361B2
:101E9000036C1BB1236843F0080323602368002010
:101EA00043F00103236070BDA160E260E4E780F8C5
:101EB00034500220F7E770B50446856DFFF79AFCB1
:101EC000064694F83530022B06D080230120636546
:101ED000002384F8343070BD23681A6822F016029B
:101EE0001A605A6922F080025A61226C0AB9A26C07
:101EF0001AB11A6822F008021A601A6822F0010268
:101F00001A602368186810F0010009D1E26D3F23C0
:101F10009340AB60012384F8340084F83530DAE76D
:101F2000FFF768FC801B0528EBD92023032063659D
:101F3000002384F8350084F83430CCE790F835304D
:101F4000022B03D0802343650120704702680523DC
:101F500080F835300020136823F0010313607047C8
:101F60000023F7B5019308225B4B0446856D1F687B
:101F7000C36D2E689A4032420CD001680868400751
:101F800008D5086820F004000860AA60626D42F07D
:101F90000102626501229A40324208D021684969F3
:101FA000090604D5AA60626D42F00202626504224D
:101FB0009A40324208D021680968880704D5AA608F
:101FC000626D42F00402626510229A40324210D0E3
:101FD0002368196809070CD5AA601A68500337D519
:101FE0001B68190301D4236C00E0A36C0BB12046DD
:101FF0009847E16D20228A4032423AD0236818681F
:10200000C60636D5AA6094F83520052A1A6827D165
:1020100022F016021A605A6922F080025A61226C7C
:102020000AB9A26C1AB11A6822F008021A603F239A
:102030008B40AB60002384F83430012384F83530C2
:10204000236D002B45D0204603B0BDE8F040184773
:102050001A68D205C7D41A6822F008021A60C2E7CB
:10206000500327D51B68190331D4636C0BB120468C
:102070009847636D6BB3636DDA0719D50523226842
:1020800084F83530136823F0010313604FF41653BE
:10209000B7FBF3F7019B0133BB42019302D81368EE
:1020A000DB07F7D4002384F83430012384F835307B
:1020B000E36CC6E71A6812F4807208D1196821F03F
:1020C00010011960012384F8342084F83530E36B63
:1020D000CCE703B0F0BD00BF140100202DE9F04FA4
:1020E0000B6885B0DFF8BC81019300236B4ADFF8F1
:1020F000B8910124019D9C402540AC4240F0B48041
:102100004C684FEA430E032624F0100C06FA0EF634
:102110000CF1FF37F643012F11D8876807EA060A4A
:10212000CF6807FA0EF747EA0A078760476827EA89
:10213000050AC4F300179F4047EA0A074760C768CB
:10214000BCF1020F07EA060A8F6807FA0EF747EAA2
:102150000A07C76016D14FEAD30A03F0070B4FF006
:102160000F0C00EB8A0A4FEA8B0BDAF820700CFA9E
:102170000BFC27EA0C0C0F6907FA0BF747EA0C0770
:10218000CAF8207007683E4004F0030707FA0EFE05
:102190004EEA06060660E60066D5D8F8446023F0ED
:1021A000030703F0030C4FF00F0E46F4804607F1CF
:1021B00080474FEA8C0CC8F8446007F59C37D8F884
:1021C000446006F480460396039E0EFA0CF6D7F898
:1021D00008A02AEA060E324EB0424CD006F58066C0
:1021E000B0424AD006F58066B04248D006F5806617
:1021F000B04246D006F58066B04244D0484544D04F
:1022000006F50066B04242D006F58066B04240D086
:1022100006F58066B0423ED006F58066B04214BF37
:102220000A26092606FA0CF614F4803F46EA0E0642
:10223000BE606FEA050716680CBF3E402E4314F4DB
:10224000003F166056680CBF3E402E4314F4801FBA
:10225000566096680CBF3E402E43A4029660D66836
:1022600054BF3E402E43D6600133102B7FF441AF64
:1022700005B0BDE8F08F0026D4E70126D2E702269C
:10228000D0E70326CEE70426CCE70526CAE70626D4
:10229000C8E70726C6E70826C4E700BF003C0140A0
:1022A0000000024000380240001402400369194255
:1022B00014BF0120002070470AB1816170470904F2
:1022C000FBE7000008B5044B5969014202D0586190
:1022D00009F02AFD08BD00BF003C014038B50446A6
:1022E00008B303684CF6CC421A6045F255521A60A6
:1022F00042685A6082689A60FFF77CFA0546236854
:10230000D86828B91969E268914208D01A6138BDC5
:10231000FFF770FA401B3028F1D90320F7E74AF69F
:10232000AA221A60F3E70120F1E703684AF6AA221D
:1023300000201A6070470000194B37B51A6C194C11
:1023400042F080521A641B6C03F080530193019B8E
:10235000236843F480332360FFF74CFA0546636833
:10236000DA030CD5236843F400332360FFF742FA05
:102370000C4C054663689B030AD5002006E0FFF776
:1023800039FA401BB0F57A7FE9D9032003B030BD9C
:10239000FFF730FA401BB0F57A7FEBD9F5E700BFC5
:1023A00000380240007000402DE9F341044608B9AE
:1023B00001203FE00368D80710D42368990760D450
:1023C0002368190700F1A58023685A0700F1C68029
:1023D000A069002840F0308100202BE0944B9A68DF
:1023E00002F00C02042A07D09A6802F00C02082AB4
:1023F0000AD15B685A0207D58D4B1B689B03DCD55D
:102400006368002BD9D1D3E76368894DB3F5803F6A
:1024100013D12B6843F480332B60FFF7EBF9844D25
:1024200006462B689F03C8D4FFF7E4F9801B642895
:10243000F7D9032002B0BDE8F0819BB92B6823F4E3
:1024400080332B602B6823F480232B60FFF7D2F9B5
:1024500006462B689803B0D5FFF7CCF9801B64289B
:10246000F7D9E6E7B3F5A02F2B6803D143F4802317
:102470002B60CEE723F480332B602B6823F480237A
:10248000CAE76B4B9A6812F00C0F07D09A6802F0FB
:102490000C02082A11D15B6859020ED4644B1A68E9
:1024A000920702D5E268012A82D11A68216922F0D6
:1024B000F80242EAC1021A6082E7E3685C4DBBB1F0
:1024C0002B6843F001032B60FFF794F906462B6855
:1024D0009F0707D52B68226923F0F80343EAC2035C
:1024E0002B606DE7FFF786F9801B0228EFD9A0E784
:1024F0002B6823F001032B60FFF77CF906462B685D
:1025000098077FF55DAFFFF775F9801B0228F6D9B4
:102510008FE76369464D83B16B6F43F001036B67CF
:10252000FFF768F906466B6F9B073FF54DAFFFF766
:1025300061F9801B0228F6D97BE76B6F23F001035A
:102540006B67FFF757F906466B6F9F077FF53CAF48
:10255000FFF750F9801B0228F6D96AE7344B1A6C52
:10256000D00027D41A6C012642F080521A641B6CEA
:1025700003F080530193019B2E4D2B68D9051BD589
:10258000A3682B4D012B27D12B6F43F001032B6741
:1025900041F28835FFF72EF9254F80463B6F9B07A8
:1025A0003FD5002E3FF414AF214A136C23F0805323
:1025B00013640DE70026DFE72B6843F480732B607C
:1025C000FFF718F907462B68DA05D9D4FFF712F997
:1025D000C01B6428F7D92CE7ABB92B6F41F28838C0
:1025E00023F001032B672B6F23F004032B67FFF706
:1025F00001F907462B6F9807D3D5FFF7FBF8C01BEF
:102600004045F7D915E7052B2B6F03D143F00403A1
:102610002B67B9E723F001032B672B6F23F004032B
:10262000B5E7FFF7E7F8A0EB0800A842B6D900E746
:102630000038024000700040384DAB6803F00C03D6
:10264000082B41D02B68022823F080732B602ED1F9
:10265000FFF7D0F806462B68990122D4D4E9073257
:102660001343626A43F0005343EA8213E26A43EA87
:102670000263A26A294C5208013A43EA02436B60A2
:102680002B6843F080732B60FFF7B4F8054623688E
:102690009A013FF5A1AEFFF7ADF8401B0228F6D92D
:1026A000C7E6FFF7A7F8801B0228D4D9C1E6FFF7D9
:1026B000A1F804462B689B017FF58EAEFFF79AF8D0
:1026C000001B0228F6D9B4E601286B683FF4B2AECD
:1026D00003F48002E1698A427FF46AAE03F03F02AC
:1026E000216A8A427FF464AE47F6C072616A1A407A
:1026F000B2EB811F7FF45CAEA26A03F44031520852
:10270000013AB1EB024F7FF453AEE26A03F070631B
:10271000B3EB026F14BF012000208BE600380240AB
:10272000134908B58B6803F00C03042B03D0082B66
:1027300003D0104800E0104808BD4A684B6849685B
:1027400002F03F0213F48003C1F388111ABF0A4854
:1027500000230848A1FB0001FEF786FE044B5B68DE
:10276000C3F3014301335B00B0FBF3F0E4E700BFC8
:10277000003802400024F40040787D012DE9F0414A
:102780000D46044610B90120BDE8F081454A1368A2
:1027900003F00F038B4228D321688F0730D4C8077A
:1027A00043D4404A136803F00F03AB4266D8226853
:1027B00051076FD4130707D53B4A2169936823F467
:1027C000604343EAC1039360FFF7AAFF364B374AE1
:1027D0009B68C3F30313D35CD840354B1860354B6B
:1027E0001868FEF7C1FF0020CEE7136823F00F033F
:1027F0000B431360136803F00F038B42C3D1CBE785
:1028000011F0040F284B03D09A6842F4E0529A600A
:102810000E0703D59A6842F460429A609A68A068ED
:1028200022F0F00202439A60B9E761681E4B012969
:102830001A681BD112F4003FA5D09A6841F288387B
:10284000194E22F003020A439A60FEF7D3FF0746AF
:10285000B368626803F00C03B3EB820FA1D0FEF7FC
:10286000C9FFC01B4045F3D903208DE7022902D1DF
:1028700012F0007FE0E712F0020FDDE7136823F0AB
:102880000F032B431360136803F00F03AB427FF475
:102890007AAF8CE70449E0688B6823F4E053034384
:1028A0008B6087E7003C024000380240BB4B0108C8
:1028B0001401002004000020044B054A9B68C3F368
:1028C0008223D35C034A1068D84070470038024026
:1028D000CB4B010814010020044B054A9B68C3F34D
:1028E0004233D35C034A1068D84070470038024036
:1028F000CB4B0108140100202DE9F7430268044680
:1029000012F001060BD0B64B996821F400019960D2
:10291000466B99683143B6FA86F67609996012F4E7
:10292000002512D0AE49E56BD1F88C30B5F5801F8B
:1029300023F4401308BF012643EA050316BFB5FA86
:1029400085F500256D09C1F88C30D10210D5A44859
:10295000216CD0F88C30B1F5800F23F4400343EAAA
:102960000103C0F88C3000F06581002908BF012503
:1029700012F0807F18BF0126920631D5984B994FEF
:102980001A6C42F080521A641B6C03F0805301935E
:10299000019B3B6843F480733B60FEF72BFF80464E
:1029A0003B68DB0540F148818D4F3B6F13F440736A
:1029B00040F04D81236B03F44072B2F5407F884AAA
:1029C00040F06B81916823F0704021F4F81120F4FD
:1029D000407001439160C3F30B03116F0B43136706
:1029E0002368DA060CD57E4AD2F88C1021F080716B
:1029F000C2F88C10D2F88C10A06B0143C2F88C1076
:102A00005F0408D57649606ED1F8902022F44032F8
:102A10000243C1F89020180408D57149A06ED1F87E
:102A2000902022F440220243C1F89020D90308D517
:102A30006B49E06ED1F8902022F440120243C1F8B5
:102A400090209A0308D56649206FD1F8902022F48F
:102A500040020243C1F890205F0608D56049606CCF
:102A6000D1F8902022F003020243C1F8902018060A
:102A700008D55B49A06CD1F8902022F00C020243EB
:102A8000C1F89020D90508D55549E06CD1F89020BF
:102A900022F030020243C1F890209A0508D550492F
:102AA000206DD1F8902022F0C0020243C1F890209E
:102AB0005F0508D54A49606DD1F8902022F4407234
:102AC0000243C1F89020180508D54549A06DD1F8FA
:102AD000902022F440620243C1F89020D90408D526
:102AE0003F49E06DD1F8902022F440520243C1F8F2
:102AF00090209A0408D53A49206ED1F8902022F40B
:102B000040420243C1F890205F0208D53449A06FCB
:102B1000D1F8902022F080620243C1F89020980200
:102B20000CD52F48E16FD0F89020B1F1006F22F062
:102B3000006208BF01250A43C0F89020590308D558
:102B40002749606FD1F8902022F040720243C1F80B
:102B500090201A0209D52249D4F88000D1F890209B
:102B600022F080520243C1F89020012E00F099809B
:102B7000B3F1007F00F09580012D59D1184D2B68DD
:102B800023F080532B60FEF735FE06462B689F002E
:102B900000F10B8121680D0301D5E36B1BB1C80265
:102BA00022D5236C03BB0E4AD2F88830D2F88800B5
:102BB00003F4403300F0E0400343606943EA8013CC
:102BC000A06943EA0063C2F88830D2F88C30A06A6A
:102BD00023F4F853013843EA0023C2F88C3003E0B1
:102BE00000380240007000408A0215D5E36FB3F14F
:102BF000006F11D1744AD2F88830D2F8881003F0EF
:102C0000706301F0E0410B43616943EA8113216A7B
:102C100043EA0143C2F888306B4C236843F0805389
:102C20002360FEF7E7FD054623689B0040F1C48062
:102C3000002009E001269BE6FEF7DCFDA0EB080082
:102C400064287FF6ADAE032003B0BDE8F083226BAD
:102C500002F440729A423FF4ADAE3B6F3A6F23F4F8
:102C6000407342F480323A673A6F22F480323A6716
:102C70003B673B6FD8077FF59DAEFEF7BBFD41F28A
:102C8000883980463B6F99073FF594AEFEF7B2FD59
:102C9000A0EB08004845F5D9D5E7916821F4F81173
:102CA00098E6494E336823F080633360FEF7A2FD57
:102CB000074633681B0172D42268D70712D5636BAD
:102CC00083B9D6F88430D6F8841003F4403301F089
:102CD00070610B43616843EA8113A16843EA0173A1
:102CE000C6F88430160303D5E36BB3F5801F05D017
:102CF000D0021ED5236CB3F5800F1AD13249D1F81A
:102D00008430D1F8840003F4403300F0E040034302
:102D1000606843EA8013E06843EA0063C1F88430E6
:102D2000D1F88C00636A20F01F00013B0343C1F817
:102D30008C30D10111D52449D1F88430D1F88400E8
:102D400003F0706300F0E0400343606843EA8013DF
:102D5000206943EA0043C1F8843092010DD523690C
:102D600062681B0443EA8213E26843EA0263A268D2
:102D700043EA0273144AC2F88430134E336843F0B6
:102D800080633360FEF736FD074633681B013FF56D
:102D9000F3AEFEF72FFDC01B6428F6D953E7FEF70C
:102DA00029FDC01B642884D94DE7FEF723FD801B55
:102DB00064287FF6EBAE46E7FEF71CFD401B642857
:102DC0007FF632AF3FE700BF0038024010B504463F
:102DD00090B1437903F0FF0213B902710AF0BCFB12
:102DE0000223226800206371136843F00403136018
:102DF00001236371A06010BD0120FCE7F8B50379E1
:102E000004460E46012B25D00120637983422071B0
:102E10001DD102236371FEF7EDFC07462268556859
:102E200015F0010508D093680020E36033600123AA
:102E300063710023237109E0FEF7DCFCC01B02284C
:102E4000ECD90120022325716071A360F8BD042331
:102E5000A360EEE70220F9E77047704703685A68FD
:102E600010B5044690061FD51023A3600423204606
:102E70006371FFF7F2FF23686FF060025A60236806
:102E80005A68D2070FD51A6822F008021A609968AA
:102E90006379E160042B06D001232046637100238F
:102EA0002371FFF7D9FF10BD5B685906E7D50823EA
:102EB000DBE703685A6822F0E0025A604268B2F524
:102EC000827F0AD18268B2F5004F02D0B2F5806FDE
:102ED00003D11A6822F040021A60826AB2F5005FDC
:102EE00007D11A6822F400521A601A6842F400529C
:102EF0001A60012380F85D30002380F85C300320E5
:102F0000704770B504460D4616462368986810F061
:102F1000800000D170BD6A1CF8D0FEF76BFC801BEE
:102F20008542F2D82046BDE87040FFF7C2BFF8B531
:102F300005460C4616461F4629688868204000D181
:102F4000F8BDB4F5C06F00D10B7B731CF5D0FEF754
:102F500051FCC01B8642EFD82846BDE8F840FFF779
:102F6000A8BFF8B5436804460E461746B3F5827FFE
:102F70000BD18368B3F5004F02D0B3F5806F04D155
:102F800023681A6822F040021A603A463146204609
:102F9000FFF7B7FF054628B1236E032543F0200352
:102FA000236613E06368B3F5827F0FD1A368B3F59E
:102FB000004F02D0B3F5806F08D13B4632464FF444
:102FC000C0612046FFF7B3FF0028E5D12846F8BDD1
:102FD00070B513460D4616460A464FF4C0510446D6
:102FE000FFF7A5FF28B1236E032043F020032366DB
:102FF0000FE0324629462046FFF783FF0028F2D132
:1030000033462A464FF4C0612046FFF790FF002860
:10301000E9D170BD70B5044600284AD00023836210
:1030200090F85D3003F0FF021BB980F85C200AF0D5
:10303000B5FA02232268E56884F85D301368B5F5B7
:10304000E06F23F0400313604FF0000333D84FF4D8
:10305000805100D0A362236B2BB9B5F5E06F8CBF14
:10306000022301232363A069D4E90136334326698F
:10307000334366693343E6693343266A3343A66ABA
:10308000334300F40076000C334300F00400136077
:10309000636A2B43656B2B43034300200B43536050
:1030A000D36923F40063D3610123206684F85D3083
:1030B00070BD0120FCE71946B5F5706FC9E7000047
:1030C00090F85C30012B10B504466DD0012380F8D8
:1030D0005C3090F85D00C0B2984263D1002945D0C1
:1030E000002A43D00323A287A16384F85D30002324
:1030F00023662364E287A4F84430A4F846302268AB
:10310000C4E91333A368B3F5004F03D1136843F444
:1031100080431360606D254B0364254BC363254BCF
:10312000C36400230365536823F480435360E3685A
:10313000B3F5E06F0ED88369B3F5005F0AD1E38F72
:1031400013F0010F536815D123F480435360E38FCC
:103150005B08E387E38F0C32FEF770FE88B1236EC5
:10316000012043F01003236684F85D00002384F8F7
:103170005C3010BD43F480435360E38F5B08013340
:10318000E7E723681A68520603D41A6842F040023F
:103190001A605A6842F020025A605A6842F00202ED
:1031A0005A60E3E70220E1E70220E2E7A3340008E7
:1031B000E9340008C734000838B5044690F85C00CC
:1031C000012800F0C380012084F85C0094F85D00C1
:1031D000C0B201280BD06568B5F5827F40F0B2809F
:1031E000A568002D40F0AE80042840F0AB80002997
:1031F00000F0AA80002A00F0A780002B00F0A48035
:1032000094F85D00042802D0052084F85D000020B9
:10321000226422682066A163E387A4F846305168DF
:10322000A38721F4C041A4F84430C4E913005160DD
:10323000E168A06DB1F5E06F216827D9536823F4E8
:103240008053536094F85D300C31226C042B0BBF1B
:103250003F4B404B036403640CBF3F4B3F4BC36386
:103260003F4BC36400230365B4F84630FEF7E6FD28
:103270000346002843D0236E012043F01003236649
:1032800084F85D00002384F85C3038BD556845F44F
:1032900080555560656DAD69B5F5005F09D113F0D6
:1032A000010F53681CD123F480435360E38F5B0804
:1032B000E3878369B3F5005FC4D1536823F4805377
:1032C0005360B4F8463013F0010F53680FD123F464
:1032D00000535360B4F846305B08A4F84630B1E7B9
:1032E00043F480435360E38F5B080133E0E743F42A
:1032F00000535360B4F846305B080133EDE72268B1
:10330000606D51680C3241F0010142F8081CA16B5C
:10331000C0E90F33C0E91333E38FFEF78FFD0028B8
:10332000A9D123681A68520603D41A6842F04002F1
:103330001A605A6842F020025A605A6842F002024B
:103340005A609FE702209DE701209BE702209CE74F
:10335000AF340008BB34000853350008A735000817
:10336000C73400081346826870B504460D465AB942
:103370004668B6F5827F07D10422BDE8704080F828
:103380005D200A46FFF718BF94F85C1001297ED033
:1033900094F85D000121C0B284F85C10884274D1B9
:1033A000002D3BD0002B39D00421B2F5004F25640D
:1033B00084F85D104FF00001A4F844302166A18725
:1033C000A4F84630E187C4E91311216803D10B68E2
:1033D00023F480430B604B68A06D23F400534B60D3
:1033E000E368B3F5E06F4B681CD923F480534B605E
:1033F000284B2A460C310364274BC363274BC36415
:1034000000230365B4F84630FEF718FD60B3236E61
:10341000012043F01003236684F85D00002384F844
:103420005C3070BD43F480534B608369B3F5005F3B
:10343000DED14B6823F480534B60B4F8463013F070
:10344000010F4B6808D123F400534B60B4F84630A9
:103450005B08A4F84630CBE743F400534B60B4F864
:1034600046305B080133F4E723681A68520603D438
:103470001A6842F040021A605A6842F020025A600C
:103480005A6842F001025A60C8E70220C6E70220EB
:10349000C7E700BFAF34000853350008C734000841
:1034A000704708B5806BFFF7FBFF08BD704708B594
:1034B000806BFFF7FBFF08BD704708B5806BFFF717
:1034C000FBFF08BD7047806B026808B5536823F0A6
:1034D00003035360036E43F010030366012380F877
:1034E0005D30FFF7EFFF08BD37B50546846BFEF78B
:1034F00081F902462B681B68DB0526D42368204629
:10350000596821F020015960596821F00201596081
:103510006421FFF75DFD18B1236E43F0200323669D
:10352000A36833B901932368DA6801929B68019319
:10353000019B0023E387012384F85D30236E23B1D0
:103540002046FFF7BFFF03B030BD204608F00EFF56
:10355000F9E738B50546846BFEF74CF902462B684F
:103560001B68DB051BD423682046596821F0200125
:103570005960596821F0030159606421FFF7F1FC9B
:1035800008B1202323660023A4F84630012384F8E1
:103590005D30236E1BB12046FFF794FF38BD2046F7
:1035A00008F0ECFEFAE738B50546846BFEF722F921
:1035B00002462B681B68DB051FD4216820464B6838
:1035C00023F020034B606421FFF702FD18B1236E46
:1035D00043F0200323662268536823F003035360FB
:1035E0000023E387A4F84630012384F85D30236E7E
:1035F0001BB12046FFF766FF38BD204608F0C6FE27
:10360000FAE700007FB5036804465D689A6891098F
:1036100011F001060AD112F0010F07D015F0400F8A
:1036200004D0C36C04B0BDE870401847900704D5BF
:10363000280602D5236D2046F4E750090143C90747
:1036400001D4D10557D5A90655D576B194F85D10AA
:103650000026032949D0216E41F00401216600961D
:10366000D9680091996800910099C0070CD5216E26
:1036700041F00101216600210291996802911968C7
:1036800021F0400119600299D10508D5226E42F05F
:1036900008022266002203929A680392039A226E1D
:1036A0004AB35A6822F0E0025A60012284F85D2091
:1036B000AA0722D05A68A06D22F003025A6040B1D6
:1036C000104B0365FEF73AFC18B1236E43F040033C
:1036D0002366606D78B10B4B0365FEF72FFC50B18C
:1036E000236E43F04003236605E00196DA680192F9
:1036F0009B680193019B04B070BD2046FFF7E2FE7A
:10370000F9E700BF0937000808B5806B0023A0F86F
:103710004630C387FFF7D6FE08BD0000036A23F0DA
:10372000010370B50362036A4268846923F00203EF
:103730000D6824F4803424F073042C438D682B43EB
:103740000E4DA84202D00E4EB04211D123F0080314
:10375000CE68A84243EA060323F0040302D0084DD2
:10376000A84205D122F44072D1E9055635432A43D7
:1037700042604A6884614263036270BD0000014098
:1037800000040140036A23F4807370B50362036A86
:103790004268C46923F400730D6824F4803424F073
:1037A00073042C438D6843EA0523114DA84203D0CE
:1037B00005F58065A84214D1CD6823F4006343EA7F
:1037C00005230B4DA84223F4806303D005F58065E3
:1037D000A84206D122F44052D1E90556354342EAC7
:1037E000051242604A68C461C263036270BD00BFD3
:1037F00000000140036A23F4805330B50362026A7B
:103800004468C36922F400520D6823F0807323F4E6
:10381000E64343EA05238D6842EA0532084DA84293
:1038200003D005F58065A84204D124F480444D6995
:1038300044EA85144460C3614B680364026230BD8E
:1038400000000140036A23F4803330B50362026A4A
:103850004468436D22F400320D6823F4803323F072
:1038600070032B438D6842EA0542094DA84203D0FC
:1038700005F58065A84204D124F480344D6944EAFA
:103880000524446043654B688365026230BD00BF18
:1038900000000140036A23F4801330B50362026A1A
:1038A0004468436D22F400120D6823F0807323F402
:1038B000E04343EA05238D6842EA0552084DA842D9
:1038C00003D005F58065A84204D124F480244D6915
:1038D00044EA8524446043654B68C365026230BD99
:1038E000000001400223026880F83D30084B9168D7
:1038F0000B40062B06D0B3F5803F03D0136843F08E
:1039000001031360012380F83D300020704700BFA1
:10391000070001000368DA6842F00102DA60074A32
:1039200099680A40062A06D0B2F5803F03D01A688B
:1039300042F001021A600020704700BF070001003A
:103940000368DA6822F00102DA6041F21112196AA2
:10395000114208D1196A40F24442114203D11A6857
:1039600022F001021A6000207047704770477047CC
:103970007047704703681A69910710B504460FD560
:10398000DA6892070CD56FF002021A6101229B6976
:103990000277990700F08580FFF7E9FF002323777E
:1039A00023681A69520710D5DA6850070DD56FF0F1
:1039B000040220461A6102229B69227713F4407F99
:1039C00075D0FFF7D4FF0023237723681A69110706
:1039D0000FD5DA6812070CD56FF0080220461A617D
:1039E0000422DB6922779B0767D0FFF7C0FF002323
:1039F000237723681A69D00610D5DA68D1060DD569
:103A00006FF0100220461A610822DB69227713F456
:103A1000407F58D0FFF7ABFF0023237723681A6954
:103A2000D20708D5DA68D00705D56FF00102204625
:103A30001A6106F03DF823681A69110608D5DA689C
:103A4000120605D56FF0800220461A6100F02FFBA8
:103A500023681A69D00508D5DA68110605D56FF410
:103A6000807220461A6100F023FB23681A6952060F
:103A700008D5DA68500605D56FF0400220461A6175
:103A8000FFF777FF23681A69910622D5DA68920654
:103A90001FD56FF0200220461A61BDE8104000F0EB
:103AA00005BBFFF763FF2046FFF762FF76E7FFF7EE
:103AB0005DFF2046FFF75CFF85E7FFF757FF2046D5
:103AC000FFF756FF93E7FFF751FF2046FFF750FF40
:103AD000A2E710BD304A0368904212D0B0F1804F87
:103AE0000FD0A2F57C4290420BD002F5806290424A
:103AF00007D002F58062904203D002F578429042EE
:103B000019D14A6823F070031343234A904229D005
:103B1000B0F1804F26D0A2F57C42904222D002F52F
:103B2000806290421ED002F5806290421AD002F567
:103B30007842904216D0194A904213D002F5806222
:103B400090420FD002F5806290420BD0A2F59832DD
:103B5000904207D002F58062904203D002F5806265
:103B6000904203D123F44073CA6813434A6923F097
:103B70008003134303608B68C3620B688362064B48
:103B8000984203D003F58063984201D10B69036327
:103B900001234361704700BF000001400040014025
:103BA00010B50446A0B190F83D3003F0FF021BB9F8
:103BB00080F83C2009F06EFD02232068211D84F866
:103BC0003D30FFF787FF0123002084F83D3010BD12
:103BD0000120FCE710B50446A0B190F83D3003F099
:103BE000FF021BB980F83C20FFF7BFFE02232068CC
:103BF000211D84F83D30FFF76DFF0123002084F87C
:103C00003D3010BD0120FCE7036A23F0100370B5BE
:103C10000362036A4268846923F020030D6824F07C
:103C2000807424F4E64444EA05248D6843EA0513CD
:103C3000104DA84203D005F58065A84214D1CD6887
:103C400023F0800343EA05130A4DA84223F0400302
:103C500003D005F58065A84206D122F44062D1E97F
:103C60000556354342EA850242604A6884618263B0
:103C7000036270BD0000014038B590F83C30044646
:103C80000220012B10D00123082A84F83D0084F87B
:103C90003C3043D009D8FAB1042A2ED001230020A9
:103CA00084F83D3084F83C0038BD102A47D0142AEF
:103CB00056D00C2AF2D12068FFF79CFD23680969D1
:103CC000DA6942F40062DA61DA6922F48062DA6168
:103CD000DA6942EA012230E02068FFF71FFD23681D
:103CE00009699A6942F008029A619A6922F004020D
:103CF0009A619A690A439A61D0E72068FFF784FFC6
:103D0000236809699A6942F400629A619A6922F407
:103D100080629A619A6942EA0122ECE72068FFF723
:103D200031FD23680969DA6942F00802DA61DA696B
:103D300022F00402DA61DA690A43DA61AEE7206848
:103D4000FFF780FD236809695A6D42F008025A6541
:103D50005A6D22F004025A655A6D0A435A659DE76E
:103D60002068FFF797FD236809695A6D42F40062E5
:103D70005A655A6D22F480625A655A6D42EA0122F0
:103D8000ECE710B50A43846842EA032324F47F4435
:103D90002343836010BD000090F83C30012B70B5C8
:103DA00004464FF0020017D084F83D00012320683C
:103DB00084F83C308268414B134083600B68402B91
:103DC00065D015D8102B0CD007D853B10123002093
:103DD00084F83D3084F83C0070BD202B01D0302B9E
:103DE000F4D1826843F0070322F0700213431AE013
:103DF000602B34D019D8502BE8D14A68CE68016ABC
:103E0000056A21F00A0125F001050A43056283696C
:103E100023F0F00343EA061383610262836823F010
:103E2000700343F057038360D0E7702B0CD0B3F5D9
:103E3000005FCBD1CB68D1E90121FFF7A2FF226857
:103E4000936843F4804308E0CB68D1E90121FFF790
:103E500098FF2268936843F077039360B6E74D6854
:103E6000CE68016A21F0100101628269036A22F4BE
:103E7000704223F0A00342EA063243EA051382614E
:103E80000362836823F0700343F06703CBE74A685B
:103E9000CE68016A056A21F00A0125F001050A438E
:103EA0000562836923F0F00343EA0613836102622B
:103EB000836823F0700343F04703B4E78800FEFFF4
:103EC00001F01F01036A10B501248A408C4023EAE7
:103ED00004030362036A1A43026210BD10B504466C
:103EE00001220068FFF7ECFF23680C4A934203D0DD
:103EF00002F58062934203D15A6C42F400425A6444
:103F00009968074A0A40062A06D0B2F5803F03D0D6
:103F10001A6842F001021A60002010BD0000014042
:103F200007000100FFF7DABF10B504460022006861
:103F3000FFF7C6FF2368144A934203D002F580625C
:103F400093420DD1196A41F21112114208D1196A36
:103F500040F24442114203D15A6C22F400425A64A6
:103F6000196A41F21112114208D1196A40F2444211
:103F7000114203D11A6822F001021A6001230020C5
:103F800084F83D3010BD00BF0000014090F83C3087
:103F9000012B4FF0020370B53ED080F83D30012276
:103FA00003681E4D80F83C20AB425A689C6802D0E2
:103FB0001B4EB34203D122F470024E6832430E68A6
:103FC00022F07002AB4242EA06025A6019D0B3F105
:103FD000804F16D0134A934213D002F58062934269
:103FE0000FD002F5806293420BD002F578429342E3
:103FF00007D002F57052934203D0A2F59432934257
:1040000004D1896824F080020A439A60012380F871
:104010003D30002380F83C30184670BD0000014060
:10402000000401400004004090F83C30012B10B522
:1040300038D0CB688A6823F440731B4C13434A681A
:1040400023F4806313430A6823F4006313430A696B
:1040500023F4805313434A6923F4005313438A6AB9
:1040600023F4804313438A6923F4702343EA024311
:104070000268A24203D004F58064A2420CD14C6ACB
:1040800023F4700343EA0453CC69096A23F0807374
:10409000234323F000730B435364002380F83C3028
:1040A000184610BD0220FCE7000001407047704731
:1040B00070470000EFF3058313B16FF00500704700
:1040C000EFF31082074B12B9EFF3118212B11A68A5
:1040D000022AF2D0186810B901221A6070474FF016
:1040E000FF307047780B002008B5EFF3058313B15C
:1040F0006FF0050008BDEFF310820A4B12B9EFF321
:10410000118212B11A68022AF2D01A68012A05D166
:1041100002221A6001F0B4F90020EBE74FF0FF3003
:10412000E8E700BF780B0020F0B5144687B0002206
:104130000B460592EFF3058232BBEFF3108212B902
:10414000EFF311821AB1234A1268022A1CD0D8B1A7
:10415000002C37D0A5692168002D08BF18256A1EDC
:104160002F46372A33D86268D20730D4666976B1D1
:10417000B208D4E902CEBCF1000F0BD0BEF15B0F48
:1041800002D9246904B1B6B9059807B0F0BD4FF45F
:104190000072EEE7BEF1000FF6D12469002CF3D1D6
:1041A00005AC92B2CDE9007401F0E2F801281CBF21
:1041B00000230593E8E7CDE9014C009501F09AF85A
:1041C0000590E1E718274FF400722146E8E7002048
:1041D000DBE700BF780B002008B5EFF3058313B1D0
:1041E0006FF0050008BDEFF3108313B9EFF31183EF
:1041F0001BB1054B1B68022BF2D00028F2D001F056
:104200009DFA0020EEE700BF780B002070B5044651
:10421000EFF3058313B10025284670BDEFF310823C
:1042200012B9EFF311821AB1184A1268022AF2D0B9
:1042300004B1636803F001061B07ECD4B4B1D4E900
:10424000021389B14F2BE6D9DEB1042000F0C2FB86
:1042500005460028DFD02168284600F0AFFE002E7A
:10426000DAD045F00105D7E7002BD4D15EB10420A8
:1042700000F0E5FB05460028CDD0002CEBD121460F
:10428000EAE70120E2E70120F2E700BF780B002017
:10429000034620F0010010B503F001030C46EFF3D4
:1042A000058212B16FF0050010BDEFF3108212B954
:1042B000EFF311821AB10D4A1268022AF2D088B1C6
:1042C000214663B100F002FE012801D10020EBE796
:1042D000002C14BF6FF001006FF00200E4E700F063
:1042E0002BFDF1E76FF00300DEE700BF780B002045
:1042F00008B5034620F0010003F00103EFF3058247
:1043000012B16FF0050008BDEFF3108212B9EFF3A0
:1043100011821AB10A4A1268022AF2D068B13BB17E
:1043200000F06DFB01280CBF00206FF00200EAE7EF
:104330001A46194600F094FAF4E76FF00300E2E73A
:10434000780B002073B51446EFF305831BB10025ED
:10435000284602B070BDEFF3108313B9EFF3118359
:104360001BB11A4B1B68022BF1D00028EFD000299B
:10437000EDD004B3D4E90232ABB14F2AE7D92269B8
:10438000002AE4D001FB00F56669AE42DFD30025C8
:10439000009500F0E3F905460028D8D021682846AA
:1043A00000F00CFED4E7002AD1D12369002BCED136
:1043B0006369002BCBD1002200F028FA05460028C3
:1043C000C5D0002CEAD12146E9E700BF780B0020D8
:1043D00013B51C46EFF3058323B1D8B96FF0030082
:1043E00002B010BDEFF3108313B9EFF311831BB1CB
:1043F000164B1B68022BF0D00028EFD00029EDD01F
:104400000023224600F02CFA012811D0DCB96FF00D
:104410000200E5E70029E1D0002CDFD102AA234603
:1044200042F8044D00F01DFB0128F0D1019B0BB9AF
:104430000020D5E7064B4FF080521A60BFF34F8F34
:10444000BFF36F8FF4E76FF00100C9E7780B00202E
:1044500004ED00E013B51C46EFF3058323B1D0B99A
:104460006FF0030002B010BDEFF3108313B9EFF348
:1044700011831BB1154B1B68022BF0D00028EFD025
:104480000029EDD0224600F0B1FB012810D0D4B9AC
:104490006FF00200E6E70029E2D0002CE0D102AA8A
:1044A00042F8044D00F035FD0128F1D1019B0BB914
:1044B0000020D7E7064B4FF080521A60BFF34F8FB2
:1044C000BFF36F8FF4E76FF00100CBE7780B0020AC
:1044D00004ED00E008B5EFF3058313B16FF00500BC
:1044E00008BDEFF3108313B9EFF311831BB1064B33
:1044F0001B68022BF2D020B1002100F0EDF8002063
:10450000EEE76FF00300EBE7780B0020034B03604E
:10451000034B0B604FF40073136070471C0B0020BB
:104520001C030020034B0360034B0B604FF48073AC
:10453000136070477C0F00207C0B002000F1080303
:104540004FF0FF3243600361C0E9022300230360A0
:10455000704700230361704743689A684B608A6024
:104560009A6851609960036808610133036070477D
:104570000A68531C30B50AD103695A684A609160D1
:104580008B605960036808610133036030BD00F13E
:1045900008035C6825689542EFD82346F9E7D0E91F
:1045A000011203698A60826851605968814208BFBC
:1045B0005A60002202611A68013A1A60186870474E
:1045C00010B5044601F05EFDA46B01F081FDB4FA64
:1045D00084F0400910BD70B51546026C0446866B28
:1045E00042B905689DB9806801F034FAA5600136CA
:1045F000A66370BD6DB9406809F0C0F96368226CAC
:104600001344A2689342636001D32368636000206F
:10461000EDE7C06809F0B2F9236CE2685B422168FB
:104620001A448A42E2603EBFA2689B18E360022DF2
:10463000EDD10EB1013EEAE73046D8E70346084621
:104640001A6C10B462B1D9689C681144A142D96057
:104650005DF8044B24BF1968D960D96809F08EB998
:104660005DF8044B704770B5044601F00BFD94F8FB
:10467000455004F124066DB2002D14DCFF2304F133
:10468000100684F8453001F023FD01F0FBFC94F89E
:1046900044506DB2002D12DCFF2384F84430BDE895
:1046A000704001F015BD636A002BE7D0304601F081
:1046B000E5F808B101F072F9013D6DB2DCE723695C
:1046C000002BE9D0304601F0D9F808B101F066F9C5
:1046D000013D6DB2DEE7000038B50D46044650B925
:1046E0004FF0500372B683F31188BFF36F8FBFF39F
:1046F0004F8F62B6FEE701F0C5FC2268D4E90F30A7
:1047000062604343D1181B1A1344A1600021E36087
:10471000FF23A16384F8443084F8453095B92369B8
:1047200063B104F1100001F0A9F838B10A4B4FF061
:1047300080521A60BFF34F8FBFF36F8F01F0C8FC38
:10474000012038BD04F11000FFF7F8FE04F1240049
:10475000FFF7F4FEF2E700BF04ED00E013B51C46DE
:1047600050B94FF0500372B683F31188BFF36F8FC7
:10477000BFF34F8F62B6FEE753B94FF0500372B6E6
:1047800083F31188BFF36F8FBFF34F8F62B6FEE7DD
:104790005AB1B1B94FF0500372B683F31188BFF329
:1047A0006F8FBFF34F8F62B6FEE751B14FF05003EA
:1047B00072B683F31188BFF36F8FBFF34F8F62B66A
:1047C000FEE750230193019B502B0AD04FF050037A
:1047D00072B683F31188BFF36F8FBFF34F8F62B64A
:1047E000FEE7002908BF2246019B0123226084F8CE
:1047F0004630C4E90F0119462046FFF76DFF9DF8CA
:104800001030204684F84C3002B010BDF8B50D468B
:104810001746064650B94FF0500372B683F311881D
:10482000BFF36F8FBFF34F8F62B6FEE74843503040
:1048300001F086FD044660B1002380F8463055B98A
:10484000206001212046C4E90F65FFF745FF84F889
:104850004C702046F8BD00F150030360F1E7000002
:104860002DE9FF47884601921F46044650B94FF094
:10487000500372B683F31188BFF36F8FBFF34F8F6E
:1048800062B6FEE761B9036C53B14FF0500372B6E4
:1048900083F31188BFF36F8FBFF34F8F62B6FEE7CC
:1048A000022F0DD1E36B012B0AD04FF0500372B6EB
:1048B00083F31188BFF36F8FBFF34F8F62B6FEE7AC
:1048C00001F078F860B9019E5EB14FF0500372B606
:1048D00083F31188BFF36F8FBFF34F8F62B6FEE78C
:1048E00000264FF00009DFF8E8A037E0019D1DB970
:1048F00001F0EEFB002050E016B902A801F002F82A
:1049000001F0E6FB00F004FE01F0BCFB94F844303B
:10491000FF2B01D184F8449094F84530FF2B01D14E
:1049200084F8459001F0D4FB01A902A800F0F6FF3D
:10493000002846D101F0A6FBA26BE36B9A422FD16F
:1049400001F0C6FB019904F1100000F05BFF204666
:10495000FFF789FE00F07CFE50B3012601F092FBC8
:10496000A26BE36B9A4201D3022FBFD13A46414674
:104970002046FFF730FE636A1BB104F1240000F00B
:104980007DFF38B1124B4FF080521A60BFF34F8F4A
:10499000BFF36F8F01F09CFB012004B0BDE8F087EE
:1049A00001F096FB2046FFF75EFE00F051FED4E7D3
:1049B0004FF08053CAF80030BFF34F8FBFF36F8FB3
:1049C000CBE72046FFF74FFE00F042FE92E700BF24
:1049D00004ED00E000220B4613B5114600900120C3
:1049E000FFF7BCFE044638B1002383601A4603601B
:1049F0001946C360FFF734FF204602B010BD38B53A
:104A0000044650B94FF0500372B683F31188BFF3D8
:104A10006F8FBFF34F8F62B6FEE7856800F0C4FF6B
:104A200085420AD1E368013BE36023B91A4619467F
:104A30002046FFF715FF012000E0002038BD10B52B
:104A4000024600210120FFF7E1FE044638B10023B1
:104A500083601A4603601946C360FFF701FF2046D2
:104A600010BD2DE9F843894690461F46044650B9CB
:104A70004FF0500372B683F31188BFF36F8FBFF30B
:104A80004F8F62B6FEE761B9036C53B14FF050032C
:104A900072B683F31188BFF36F8FBFF34F8F62B687
:104AA000FEE7022F0DD1E36B012B0AD04FF050032C
:104AB00072B683F31188BFF36F8FBFF34F8F62B667
:104AC000FEE701F0E7FBEFF311864FF0500372B6FB
:104AD00083F31188BFF36F8FBFF34F8F62B6A26B62
:104AE000E36B9A4201D3022F22D194F845503A4603
:104AF000494620466DB2FFF76EFD6B1C13D1636A09
:104B00000BB901200BE004F1240000F0B7FE0028EF
:104B1000F7D0B8F1000FF4D00120C8F8000086F3F8
:104B20001188BDE8F88301356DB284F84550E8E797
:104B30000020F4E770B50D46044650B94FF050031D
:104B400072B683F31188BFF36F8FBFF34F8F62B6D6
:104B5000FEE7036C53B14FF0500372B683F3118834
:104B6000BFF36F8FBFF34F8F62B6FEE7036863B981
:104B7000836853B14FF0500372B683F31188BFF3CB
:104B80006F8FBFF34F8F62B6FEE701F083FBEFF349
:104B900011864FF0500372B683F31188BFF36F8F05
:104BA000BFF34F8F62B6A26BE36B93421CD994F8AC
:104BB000453001325BB2A2635A1C10D1636A0BB953
:104BC000012009E004F1240000F058FE0028F7D08D
:104BD000002DF5D00120286086F3118870BD0133C7
:104BE0005BB284F84530EBE70020F5E72DE9F043B0
:104BF00085B00F460446019250B94FF0500372B68B
:104C000083F31188BFF36F8FBFF34F8F62B6FEE758
:104C100061B9036C53B14FF0500372B683F311883E
:104C2000BFF36F8FBFF34F8F62B6FEE700F0C2FE97
:104C300060B9019E5EB14FF0500372B683F31188E4
:104C4000BFF36F8FBFF34F8F62B6FEE700264FF0C2
:104C50000008DFF8E0903BE0019D1DB901F038FA53
:104C6000002052E016B902A800F04CFE01F030FA24
:104C700000F04EFC01F006FA94F84430FF2B01D10D
:104C800084F8448094F84530FF2B01D184F84580A6
:104C900001F01EFA01A902A800F040FE00283DD153
:104CA0002046FFF78DFC98B3019904F1240000F031
:104CB000A9FD2046FFF7D7FC00F0CAFC38B94FF039
:104CC0008053C9F80030BFF34F8FBFF36F8F0126B9
:104CD00001F0D8F9A56B002DBED0013D3946204624
:104CE000FFF7ACFCA563236963B104F1100000F089
:104CF000C5FD38B10F4B4FF080521A60BFF34F8F94
:104D0000BFF36F8F01F0E4F9012005B0BDE8F08337
:104D10002046FFF7A8FC00F09BFCD8E72046FFF7F1
:104D2000A2FC00F095FC2046FFF74AFC0028CED0FC
:104D300096E700BF04ED00E02DE9FF410446019134
:104D400050B94FF0500372B683F31188BFF36F8FE1
:104D5000BFF34F8F62B6FEE7056C55B14FF05003BD
:104D600072B683F31188BFF36F8FBFF34F8F62B6B4
:104D7000FEE700F01FFE60B9019D55B14FF05003F2
:104D800072B683F31188BFF36F8FBFF34F8F62B694
:104D9000FEE72E460027DFF8308151E0019B73B912
:104DA00055B14FF0500372B683F31188BFF36F8F84
:104DB000BFF34F8F62B6FEE701F08AF95EE016B9E5
:104DC00002A800F09FFD01F083F900F0A1FB01F0C3
:104DD00059F994F84430FF2B01D184F8447094F8C9
:104DE0004530FF2B01D184F8457001F071F901A91C
:104DF00002A800F093FD00284AD12046FFF7E0FB0F
:104E000000283FD023683BB901F03CF9A06800F0CE
:104E1000E1FD054601F05CF9019904F1240000F080
:104E2000F1FC2046FFF71FFC00F012FC38B94FF0F0
:104E30008053C8F80030BFF34F8FBFF36F8F012648
:104E400001F020F9A36B002BA8D0013BA3632368DA
:104E500013B900F097FEA060236963B104F110005C
:104E600000F00CFD38B1184B4FF080521A60BFF3C0
:104E70004F8FBFF36F8F012501F02AF9284604B048
:104E8000BDE8F0812046FFF7EEFB00F0E1FBD6E73E
:104E90002046FFF7E8FB00F0DBFB2046FFF790FB26
:104EA0000028CCD0002DE9D001F0ECF8616A19B1EE
:104EB000236B1968C1F13801A068002500F010FECD
:104EC00001F006F9DAE700BF04ED00E070B50D4629
:104ED000044650B94FF0500372B683F31188BFF304
:104EE0006F8FBFF34F8F62B6FEE7866800F05CFD00
:104EF000864204D1E36801200133E36070BD294696
:104F00002046FFF719FF0028F8D0E3680133E3607B
:104F1000F4E72DE9F84389469046054650B94FF02D
:104F2000500372B683F31188BFF36F8FBFF34F8FB7
:104F300062B6FEE761B9036C53B14FF0500372B62D
:104F400083F31188BFF36F8FBFF34F8F62B6FEE715
:104F500001F0A0F9EFF311874FF0500372B683F31D
:104F60001188BFF36F8FBFF34F8F62B6AC6B1CB36A
:104F700095F8446049462846013C76B2FFF75EFB4F
:104F8000AC63731C13D12B690BB901200BE005F145
:104F9000100000F073FC0028F7D0B8F1000FF4D037
:104FA0000120C8F8000087F31188BDE8F8830136B6
:104FB00076B285F84460E8E72046F4E70023074A24
:104FC00030B552F8335002EBC3041DB942F8331028
:104FD000606030BD0133082BF3D1FAE7D0FD022029
:104FE00070B504460D46164601F04CF894F844306E
:104FF000FF2B02D1002384F8443094F84530FF2B76
:1050000002D1002384F8453001F062F8A36B2BB97C
:105010003246294604F1240000F010FC2046BDE889
:105020007040FFF720BB00002DE9F041044601F07D
:1050300029F82E4B2E4D1A682E4F01321A602E6819
:10504000002E48D12C601B68012B1FD14FF0140893
:1050500008FB06700136FFF771FA382EF8D1DFF839
:10506000C080254E4046FFF769FA3046FFF766FAE2
:105070002248FFF763FA2248FFF760FA2148FFF75A
:105080005DFA214BC3F80080204B1E60204A136854
:10509000013313601F4A63641168E36A8B4200D9CD
:1050A00013601420211D00FB0370FFF755FA01F077
:1050B0000FF8194B1B6863B12B68DA6AE36A9A42EE
:1050C00007D2164B4FF080521A60BFF34F8FBFF3D9
:1050D0006F8FBDE8F081104B1B68002BD6D12B6879
:1050E000DA6AE36A9A42D1D82C60CFE744140020F0
:1050F000D80F0020E40F0020701400208C14002032
:10510000B8140020A4140020DC0F0020E00F0020C1
:105110005414002058140020A014002004ED00E0D6
:105120005C14002010B590F8593004463BB9006B70
:1051300001F096F92046BDE8104001F091B9012B2D
:10514000F9D0022B0AD04FF0500372B683F31188C6
:10515000BFF36F8FBFF34F8F62B6FEE710BD000045
:1051600080B5DFF85C80124F124C134D236863B991
:10517000124B1B68012BF8D94FF08053C8F8003050
:10518000BFF34F8FBFF36F8FEEE700F07BFFFB683D
:10519000DE68301DFFF703FA2B68013B2B602368A4
:1051A000013B236000F094FF3046FFF7BBFFDDE7D3
:1051B000B81400204814002044140020E40F0020FC
:1051C00004ED00E0064A13681968064B19B94FF060
:1051D000FF321A6070471268D268D2685268F8E7E6
:1051E000DC0F0020841400202DE9F0474FEA8209EB
:1051F00007460D46A5214A469846A9F10409DDE96E
:105200000964206B08F0DEFB236B994429F0070941
:1052100095B36B1E04F134020F3513F8011F02F829
:10522000011B197809B1AB42F7D1002384F8433050
:10523000089D4FF0000A201D372DC4F850A028BF4C
:105240003725E562E564C5F13805FFF782F904F119
:105250001800FFF77EF9C4F854A024614246A56106
:1052600039466462484684F858A000F0E5FE2060A4
:1052700006B13460BDE8F08784F83450D8E7000008
:10528000F8B5164B0546164E0F461C6830680430BC
:10529000FFF785F96B1C334607D137B131681148E8
:1052A0000431BDE8F840FFF757B964191A68546033
:1052B00007D30D4A10681968BDE8F8400431FFF7BC
:1052C00057B90A4A106819680431FFF751F9084BB9
:1052D0001A68A24200D91C60F8BD00BFCC1400209F
:1052E000D80F0020A4140020E00F0020DC0F0020C5
:1052F0008414002070B586B0DDE90B5455B94FF029
:10530000500372B683F31188BFF36F8FBFF34F8FD3
:1053100062B6FEE754B94FF0500372B683F31188BA
:10532000BFF36F8FBFF34F8F62B6FEE75C26059623
:10533000059E5C2E0AD04FF0500372B683F311889D
:10534000BFF36F8FBFF34F8F62B6FEE72563022571
:10535000059E84F8595004AD029401950A9D00956C
:10536000FFF742FF2046FFF75FFE049806B070BDCE
:105370002DE9F043074685B09000884616469946C9
:1053800000F0DEFF0546E8B15C2000F0D9FF0446DE
:10539000A8B1002305633246414680F859300D9B81
:1053A0000290384601930C9B00934B46FFF71CFF7D
:1053B0002046FFF739FE012005B0BDE8F0832846FE
:1053C00001F04EF84FF0FF30F6E7000070B50446EC
:1053D000234D00F057FE04B92C68261D3046FFF718
:1053E000DEF8A36A1BB104F11800FFF7D8F81D4AD4
:1053F0001368013313602B68A3421DD131461A484C
:10540000FFF7AAF8194A13680133136000F060FE31
:10541000174B1B6813B32B68A3421FD1154B1B6896
:10542000A3B14FF0500372B683F31188BFF36F8FAF
:10543000BFF34F8F62B6FEE70F4A20461368013B69
:105440001360FFF76FFEFFF7BDFEDFE70B4B4FF07A
:1054500080521A60BFF34F8FBFF36F8F70BD00BFD4
:10546000D80F002054140020B81400204814002045
:10547000A0140020501400204414002004ED00E08B
:1054800010B588B0002407AA06A905A8CDE90544EF
:10549000FFF73CF8059B079A0293069B17491848AB
:1054A000CDE900432346FFF725FFB8B100F0C8FB64
:1054B000012815D14FF0500372B683F31188BFF362
:1054C0006F8FBFF34F8F62B60E4B4FF0FF321A60F3
:1054D0000D4B18600D4B1C6000F076FE08B010BD3F
:1054E0000130FBD14FF0500372B683F31188BFF344
:1054F0006F8FBFF34F8F62B6FEE700BFF015010854
:105500006151000884140020A0140020CC14002055
:10551000024A136801331360704700BF5014002023
:10552000014B1868704700BFCC1400202DE9F84FDC
:105530003C4B1B68002B6DD13B4B1C6801341C603D
:10554000CCB93A4B1A68126852B14FF0500372B698
:1055500083F31188BFF36F8FBFF34F8F62B6FEE7FF
:10556000334A1968106818601160324A13680133B1
:105570001360FFF727FE304D4FF0000B2F4F2B68C5
:10558000A34211D93A682E4BD16A14224A439A5841
:10559000022A28BF4FF0010B2A4A1268002A0CBFCA
:1055A00058460120BDE8F88FDFF88090DFF89CA016
:1055B000D9F8002012681AB94FF0FF322A60E1E7EB
:1055C000D9F80020D268D66871688C4201D229606F
:1055D000D8E706F104084046FEF7E1FFB16A19B1C9
:1055E00006F11800FEF7DBFFF06ADAF800108842D7
:1055F00001D9CAF800001422114B414602FB0030C9
:10560000FEF7AAFF3868F16AC26A914228BF4FF0DC
:10561000010BCDE70C4A4FF0000B13680133136008
:10562000BAE700BF50140020CC140020DC0F00208B
:10563000E00F00208814002084140020D80F0020E0
:10564000E40F0020D01400204C1400205814002037
:105650002DE9F041304C236853B94FF0500372B636
:1056600083F31188BFF36F8FBFF34F8F62B6FEE7EE
:1056700000F008FD2368013B236024682CB100245E
:1056800000F026FD2046BDE8F081244B1B68002B6E
:10569000F5D0234D234EDFF8A0801DE0EB68DC68D9
:1056A000271D04F11800FEF77AFF3846FEF777FF52
:1056B000E36A3268934200D933601420394600FB14
:1056C0000380FEF749FF184BE26A1B68DB6A9A42C7
:1056D00002D3164B01221A602B68002BDED10CB1CD
:1056E000FFF770FD124D2C6844B1104E0127FFF7F3
:1056F0001DFF00B13760013CF9D12C600B4B1B68DA
:10570000002BBCD00B4B4FF080521A60BFF34F8F71
:10571000BFF36F8F0124B3E750140020441400201E
:105720008C14002058140020D80F0020D014002022
:105730004C14002004ED00E0E40F002008B540B94F
:105740000F4B4FF080521A60BFF34F8FBFF36F8F34
:1057500008BD0C4B196851B14FF0500372B683F37A
:105760001188BFF36F8FBFF34F8F62B6FEE7FFF76D
:10577000CFFEFFF785FDFFF76BFF0028E0D0E7E7DE
:1057800004ED00E050140020194B1A68194BF0B5D5
:1057900012B101221A60F0BD1A601427164D174A83
:1057A0002B68164607FB03F1545850188CB1446817
:1057B000083164680A449442446004BF62684260ED
:1057C000142202FB03625268D1680D4A11602B60FB
:1057D000E1E753B94FF0500372B683F31188BFF37A
:1057E0006F8FBFF34F8F62B6FEE7013BDAE700BF72
:1057F00050140020D014002058140020E40F002082
:10580000D80F002010B50C4650B94FF0500372B6B7
:1058100083F31188BFF36F8FBFF34F8F62B6FEE73C
:10582000054B19681831FEF7A3FE20460121BDE89B
:105830001040FFF725BD00BFD80F002038B50D463A
:10584000144650B94FF0500372B683F31188BFF37A
:105850006F8FBFF34F8F62B6FEE7074B19681831A1
:10586000FEF77AFE002C21460CBF28464FF0FF3091
:10587000BDE83840FFF704BDD80F002038B5C36835
:10588000DC6854B94FF0500372B683F31188BFF34C
:105890006F8FBFF34F8F62B6FEE704F118052846FD
:1058A000FEF77DFE114B1B68D3B9251D2846FEF778
:1058B00076FE0F4AE36A11688B4200D913600D4AE5
:1058C0001420294600FB0320FEF746FE0A4BE26A3D
:1058D0001B68DB6A9A4206D90120084B186038BD64
:1058E00029460748F0E70020F9E700BF50140020E0
:1058F00058140020E40F0020D80F0020D0140020FE
:105900008C140020034B1B680360034B1B6843602F
:10591000704700BF88140020CC140020F8B50C4656
:10592000054650B94FF0500372B683F31188BFF3A8
:105930006F8FBFF34F8F62B6FEE751B94FF0500340
:1059400072B683F31188BFF36F8FBFF34F8F62B6C8
:10595000FEE700F097FB0F4B6868196823680A1A86
:105960005E1C0DD00C4E2F683668B74201D08842BD
:105970000DD9934209D99B1A28462360FFF7C2FF2D
:10598000002400F0A5FB2046F8BD0023236001247D
:10599000F7E700BFCC14002088140020014B01223F
:1059A0001A607047D0140020014B1868704700BF80
:1059B000D80F0020054B1B6833B1054B1B68002B2B
:1059C0000CBF02200020704701207047A014002067
:1059D00050140020F8B5044640B31B4AC36A11684E
:1059E0001646C96A8B4226D28269002A04DB3268D5
:1059F000D26AC2F1380282611422144D02FB0353B1
:105A000062699A4213D1271D3846FEF7C8FD3368F4
:105A10000F4ADB6A1168E3628B4200D913601420DD
:105A2000394600FB0350FEF797FD0120F8BD3368AF
:105A3000DB6AE362F9E71368C06CDC6AA0422CBF42
:105A400000200120F2E700BFD80F0020E40F002063
:105A50005814002038B508B9002038BD1D4B1C680B
:105A600084420AD04FF0500372B683F31188BFF31B
:105A70006F8FBFF34F8F62B6FEE7236D53B94FF0C0
:105A8000500372B683F31188BFF36F8FBFF34F8F4C
:105A900062B6FEE7E16A013BE26C23659142DBD02E
:105AA000002BD9D1251D2846FEF779FDE36CC3F103
:105AB0003802E362A261084A11688B4200D9136080
:105AC000064A1420294600FB0320FEF745FD01206D
:105AD000C3E700BFD80F002058140020E40F0020B7
